:4000000000100020110000009D0100009D01000008B500F0EDF900F0C9F8C04638B5134C22688023DB0213432360182000F000FE22680F4B134023600E4A0F4B1A6010228C
:400040000E4B1A60802212060D4B1A60002525600C4A0D4B1A6009200C4900F087FD092000F064FD0A4B1D6038BDC04600010B40FFFFFBFF0600008004010B4008020240B0
:4000800008010B4010000080000002403D0E00000C020B4038B572B600241D4D0CE063001B195B00EB1899881A8858880004104300F0CCF80134E4B2012CF0D9EE2212025F
:4000C000144B1A609922144B1A601204134B1A60134B18780222022101431970114908783C24A0431424204308701878162101431970D82109010C4B19600C4B1A603121E9
:400100000B4B19600B4B1A60FFF788FF38BDC046481300000C0001401000014030500F4000700F4001700F400803044000040440080404401804044010B5064C2378002B3D
:4001400007D1054B002B02D0044800E000BF0123237010BD58010020000000004413000008B5084B002B03D00748084900E000BF07480368002B03D0064B002B00D09847EB
:4001800008BDC04600000000441300005C010020D00000200000000062B6FEE708B501F08FF803680C2B00D1FEE7FEE7F8B50F4F0F4E002412E031687368B568221C02E012
:4001C00001C901C30432AA42FAD1F168221C01E010C304328A42FBD11036013F002FEAD101F074F8FFF7D8FFFEE7C046010000001414000038B500230F4C104D104807E0B6
:40020000221C032B01D89A00525999000A5001332F2BF5D9FFF73EFF00220A4B1A600A4B1B68002B01D1084B1A608023DB05196801220A431A6038BD9D010000000000009E
:4002400000000020C8000020C000002008B50A1C002101F06AF808BD002306E04218013A1278D3189BB2013989B20029F6D15B4298B270470047C046F0B583B00C1C6E4616
:40028000F280063601230B704870151CA270130ACB70171DB9B2201CFFF7DEFFE0556B1D000AE054AB1D1722E2540735A9B2201C321C962300F028FB03B0F0BD70B5051C2B
:4002C0000E1C141C002802D0002000F04DFC0020A91903E0013C0A5D1318D8B2002CF9D170BDC04608B50C284BD88000334B1B589F46CA015242324BD218012346E0CA01C5
:400300005242304BD218042340E0CA0152422E4BD21802233AE0CA0152422C4BD218042334E0CA0152422A4BD21801232EE0CA015242284BD218012328E0CA015242264BD9
:40034000D218022322E0CA015242244BD21802231CE0CA015242224BD218022316E0CA015242204BD218042310E0CA0152421E4BD21801230AE0CA0152421C4BD218042360
:4003800004E0002000F0F0FB022300220020012B01D11078C0B2022B03D11178507800020843042B09D1137850780002184393781B041843D3781B06184308BD541300002F
:4003C000C07F0000C17F0000C57F0000C97F0000D07F0000D17F0000D67F0000D27F0000D47F0000D87F0000DC7F0000E07F000008B50D4B1B68DA0602D400220B4B1A6009
:400400000A4B1B68802B0ED10022084B1A6002200021FFF767FF002805D002200021FFF761FFFFF727FF08BD00030B40C0000020F0B5474680B4804603204146FFF752FF0A
:40044000461CF60104204146FFF74CFF361803204146FFF747FF431CDB0100240027012108E01A78551EEDB2FD2D00D80F1CA418E4B20133B342F4D36442E4B2012041467C
:40048000FFF730FF0623844202D1002F00D00023181C04BC9046F0BDF0B55F4656464D464446F0B4CD4CA544041C00F0E7F962B60020834600270A25B846C94A9246231EA2
:4004C00000D1FF2352A896214900C64A6A4400F0DDF9002C01D0013DEDB2002D01D00028EDD1002800D0BAE1BE4B6B441B880426062B29D952AA1278012A25D152AAD17896
:4005000009029278114388460A1C073203269A421AD896235B009A4216D84A1D52AB985C00020A1D9A5C1043814606315B5C0426172B09D1023989B252A8FFF78DFE4B4609
:40054000C61A731E9E41F600002E00D02FE152AB187981465A78131C313BD9B20A2900D9FAE08B005146CB589F46012F00D020E14246002A00D01FE10020FFF759FF424255
:40058000424152AB1A71012262E1012F00D016E14346012B00D015E1002800D015E1924B1B681A68D30BDBB2994502D15204120E04E0002249468B425241120252AB1A7165
:4005C000120A5A71FF229A710022DA7104223FE1342A0DD1012F00D0FAE04246032A00D0F9E007A80021802200F09FFE80239B46012F00D000E14046022800D8FFE007A946
:40060000081C58444246033A3431FF3100F084FE5B4643449BB2832B00D0F3E052AB9A7912025B791A439346FF2A00D90A26002E00D0EEE04B461802584480B26A4B1B688B
:400640001A68D3099BB2510601D001339BB2984200D2E2E007A900F07BF9002800D00A260022934680239846F2E0012F00D1F4E004260022ECE0012F00D0D5E05B46434464
:4006800096225200934200D9D1E007A9081C584453A9424600F040FE5B4643449BB29B460022D5E04346002B00D0C3E004AB4F4A81CA81C353AB04AA81CA81C300218B4657
:4006C00001270822C4E0012F00D0B6E04246032A00D0B5E052AB9A7912025B791A43009201028918C901FF2A00D90A260022002E00D0ADE000208022FFF7E0FD0190031CDB
:40070000484602020099521892B2002810D1FF2A0ED105200021FFF7E5FD019A101AC0B2814606200021FFF7DDFD49460B1ADBB25B4252AA137101228AE00020FFF778FE25
:40074000002802D180232A4A136000F09BF800F041FA042600227BE026480368002B72D0012F73D169460A724046488153AA039200210491059104AE069202A8311C98476D
:40078000B2882623FF339A4203D953AB0699994207D0069B002B01D1002A05D10498C6B256E00E26002253E00E26002250E000224EE0042600224BE00426002248E0042621
:4007C000002245E00426002242E0042600223FE0042600223CE00426002239E084FDFFFF8813000076020000D4000020B4130000C0000020740100200426002228E00426CC
:40080000002225E000218B4680229046032600221EE08023984600221AE000208346802188460A26002213E00426002210E0032600220DE0042600220AE00426002207E0C7
:400840000426002204E00526002201E005260022301C52A9FFF710FD01E000229346002C00D12CE6012F00D129E69F239B009D443CBC90469946A246AB46F0BD08B500F06A
:4008800063FB08BD08B500F06FFB08BDF0B5474680B4061C0F1C151C00282ED00122904600292CD09C00E418640000F091FB002810D000F08DFB041CAB2000F0AFF900F0A6
:4008C00087FBA042F5D1A74200D9271C2F800023984608E0012000F089F9013C002CE4D1002710229046002404E0351900F052FB28700134BC42F8D301E0012398464046BF
:4009000004BC9046F0BDC04638B50C1C151C002807D00123002905D000F0AAFB2C80002300E00123181C38BD024B1A68024B1A600020704708010B4078010020024B1A684D
:40094000024B1A60002070477801002008010B40F0B5474680B4A4B0061C002323932293FF2800D9CBE0002900D1C8E002A8802200F0D2FC022300240021002508E09A001A
:4009800068461258002A02D0891814431D1C0133212BF4D90027002902D1271C7C1EA7410024002F04D0AB0069465C5800225A50564B00937F230193554B00AA1A60554AEF
:4009C000554B1A60C046524B1B681B0F0F2B04D14F4B1B68FF22134008E04D4B1B681B0F0A2B02D04A4B1B6800E000232393239B002B00D085E000F07DFA8046FFF794FF14
:400A00002290239B002B20D1444B0093009A3304134300933E4B00A81860414A3E4B1A60C0463B4B1B681B0F0F2B04D1384B1B68FF22134008E0364B1B681B0F0A2B02D038
:400A4000334B1B6800E000232393239B002B4CD1002F4AD002A80021802200F066FCAD0069466C50294B00937F230193284B00AA1A60284A284B1A60C046254B1B681B0F40
:400A80000F2B04D1224B1B68FF22134008E0204B1B681B0F0A2B02D01D4B1B6800E000232393239B002B20D11E4B0093009B36041E430096164B00A818601B4A164B1A60B5
:400AC000C046134B1B681B0F0F2B04D1104B1B68FF22134008E00E4B1B681B0F0A2B02D00B4B1B6800E000232393229B002B02D1FFF724FF2290404600F000FA01E00423FF
:400B00002393239824B004BC9046F0BDB6D70000080000400400008004000040B6D8000005000080B6D90000060000801F23184001238340181C014B1860704700E100E077
:400B40001F23184001238340181C014B1860704780E100E01F23184001238340181C014B1860704780E200E001BE704738B5041C0D1C1F2802D90020FFF7F6FFA400024BC8
:400B8000E4182068256038BD4000002070B5041C0E1E032E02D90020FFF7E6FF1F2C02D90020FFF7E1FF03252540ED00063500F0A1F9A408A400064BE41823680322AA40CD
:400BC0009343AE40351C1D43256000F097F970BD00E400E0034B1A681204120C02490A431A6070470CED00E00400FA0570B5041C80252D02074E04E0706800F071F9064B0C
:400C0000E418AC42F8D8034B9868604300F068F970BDC046DC0000200080FFFF08B5034B1B7B584300F05CF908BDC046DC000020F0B557464E464546E0B4041C00F05AF96B
:400C40008046E51E2D2D73D83F4B1B78DBB2A34208D33E4B1B78DBB29A463D4B1B78DBB2994631E03B4B1B78DBB2A34208D33A4B1B78DBB29A46394B1B78DBB2994623E00A
:400C8000374B1B78DBB2A34208D3364B1B78DBB29A46354B1B78DBB2994615E0334B1B78DBB2A34208D3324B1B78DBB29A46314B1B78DBB2994607E02F4B1B78DBB29A4626
:400CC0002E4B1B78DBB299462D4B5E5D2F2E09D92A2C07D919222B4B1A60052000F000F9192703E0274B1F683F231F40BE4206D2234B5A5D234B1A60052000F0F1F81F4A72
:400D0000A4182278D2B2204B1A60204B52461A601F4B4A461A600520FFF780FFBE420AD9174B5A5D174B1A60052000F0D9F802E00020FFF719FF404600F0E0F81CBC90469F
:400D40009946A246F0BDC046C0F1FF0FC1F1FF0FC2F1FF0FC3F1FF0FC4F1FF0FC5F1FF0FC6F1FF0FC7F1FF0FC8F1FF0FC9F1FF0FCAF1FF0FCBF1FF0FCCF1FF0FCDF1FF0F2C
:400D8000BC1300002CFF0B4028FF0B401CFF0B4020FF0B40034B1B68C02000021840431E9841704700010B4008B500F0A3F8044B1968C02212020A431A6000F09FF808BD43
:400DC00000010B4010B500F095F8084B1968084A11408024E4012143196019680A40802109020A431A6000F089F810BD00010B40FF3FFFFF38B5051C00F07CF8041CFFF7FC
:400E0000C9FF0022002802D0FFF7DCFF0122084B1D40084B1868084901400D431D601B68012A01D1FFF7C0FF201C00F067F838BD0404040010020B40FBFBFBFF10B5244BB6
:400E40001B685A0715D5234B1B685A070ED5224BDC69042214401F490868A0430860D9699143D9611B69002B00D098470420FFF7C1FF174B1B685A0518D5164B1B685A0524
:400E800010D5154BDA698020C0001040114A116881431160D969114A0A40DA615B69002B00D098478020C000FFF7A4FF084B1B685A030CD5074B1B685A0304D5064B9B69C4
:400EC000002B00D098478020C002FFF793FF10BD10020B40F00000207C010020FFFBFFFF0230800804D0C0460138FDD1C046C046C0467047EFF3108072B6704780F310889F
:400F00007047C046C046C04608B50A20FFF70EFE08BDC04608B500F025F908BD08B500F033F908BD08B500F0AFF808BD08B5054B1968802212060A431A60FFF7E5FFFFF70E
:400F4000E9FF08BD0000064008B5064B1B78002B04D1FFF7E7FF0122024B1A70FFF7E6FF08BDC0469C01002008B50A20FFF7E8FDFFF7D4FF054B1A68520052081A600022FF
:400F8000034B1A600A20FFF7E5FD08BD00000640880F06400B4B1A680B4B1B689A420ED0094B1B6801331A1C213A511E8A4152421340064AD05CC0B2034A136000E00020A9
:400FC0007047C046B0010020AC010020DC010020074B1B68074A1268934203D3054A1068181A04E0034A10681B1A181C21307047B0010020AC010020164B1A68164B1B68D6
:401000009A4208D1154B1B680F221340082B02D0134B18601DE00F4B1A680132131C203B591E8B415B421A400B490B689A42FCD002230C490B60C0B20B49885405490A603B
:401040000A4A1268134204D1084B196802220A431A607047B4010020A80100200802064040020640800F0640B8010020880F064070B5061C0D1C002403E0305DFFF7BCFF4C
:401080000134AC42F9D370BD10B51E4A1E4B1A6000241E4B1C6001221D4B1A601D4B1E490B6007201D4908601D490C601D490A601D4A13601D4B1C600A20FFF741FD0A20DF
:4010C0000321FFF763FD0A201949FFF74FFD194B1C60194B1C60194B1C60194B1C600422184B1A60184B1C601A68184B1A80184B1C60184B1C60184B1C70184B1C60184BD8
:401100001C6010BD0B00000200000640400006404800064007000080000306400403064010030640440006400002064004020640B1110000880E0640C80E0640480F064014
:40114000080F0640C80F0640880F0640A4010020B0010020AC010020D8010020B4010020A8010020054B1A68F0218A4390210A431A60034B1A88034B1A6070471000014036
:40118000A4010020880F0640064B1A68F0218A431A60054B1B68E422D2001A40034B1A807047C04610000140880F0640A4010020F0B557464E464546E0B4304B1B68002BA7
:4011C00000D098472E4B1B685A0723D52D4D2E482E4E202398462E4CA4462F1C2D492B6801331A1C213A541EA241524213400268934204D133684346274A137004E03268FB
:40120000D2B26446E2543B600B681A07E7D10422224B1A60224B1B689C0729D5214822498846224B9C46224F0E1C224D0F24A24602680B689A4213D04246136801331A1CA6
:40124000203A541EA241524213406446E25CD2B23A6033602B6852461340082BE8D104E0154B1A6802218A431A600222134B1A601CBC90469946A246F0BDC046A0010020C0
:40128000CC0F0640B0010020AC01002040030640DC01002008030640D8010020C00F06408C0F0640B4010020A8010020B80100204002064008020640880F0640800F0640A8
:4012C000014B18687047C0465401002070B50E4B0E4D0024ED1AAD101E1CAC4204D0A300F35898470134F8E700F082F8084B094D0024ED1AAD101E1CAC4204D0A300F3586D
:4013000098470134F8E770BDFC130000FC130000FC1300000414000010B50023934203D0CC5CC4540133F9E710BD031C8218934202D019700133FAE77047000000150000CD
:40134000A80000000000000000300F40000400400F40000482030000F2020000FE0200000A03000016030000220300002E030000460300003A030000520300005E0300007E
:401380006A030000760300006A0500008A05000058070000D00500006A0600005807000076060000A4060000D0050000C60600003A0700009311C804113201010304050677
:4013C0000708090A0B0C0E0F101112131415161718191B1C1D1E1F2021222325262728292A2B2E2F303132333435000043000000F8B5C046F8BC08BC9E46704761010000A4
:40140000F5010000F8B5C046F8BC08BC9E4670473901000028140000D000002088000000A800000000000000000000003C13000040130000010000000000E02EC05D00008C
:401440001800000000366E01040404000000000000000000000000000000000000000000000000000000000000000000EC13000000000000000000000000000000000000A4
:401480000000000000000000000000000000000000000000000000000000000000000000000000000000000000000000F40000200000000000000000000000000000000018
:4014C00000000000000000000000000000000000000000000000000000000000000000000000000000000000000000000000000000000000000000000000000000000000EC
:4015000000000000000000000000000000000000000000000000000000000000000000000000000000000000000000000000000000000000000000000000000000000000AB
:40154000000000000000000000000000000000000000000000000000000000000000000000000000000000000000000000000000000000000000000000000000000000006B
:40158000000000000000000000000000000000000000000000000000000000000000000000000000000000000000000000000000000000000000000000000000000000002B
:407FC0000000000000000000000000000000000000000000010000000000000000000000000000000000000000000000000000000000000000000000000000000000000080
:0200000490303A
:020000008BE68D
:0200000490402A
:200000000000000000000000000000000000000000000000000000000000000000000000E0
:0200000490501A
:0C000000000204C81193110104CE9D7988
:0200000490600A
:0100000001FE
:00000001FF